:020000040800F2
:100000000050002045350008D91C0008DB1C000802
:10001000DD1C0008DF1C0008E11C000800000000D7
:10002000000000000000000000000000E31C0008C9
:10003000E51C000800000000E71C0008E91C00089F
:100040008D3500088D3500088D3500088D35000888
:100050008D3500088D3500088D3500088D35000878
:100060008D3500088D3500088D3500088D35000868
:100070008D3500088D3500088D3500088D35000858
:100080008D3500088D3500088D3500088D35000848
:100090008D3500088D3500088D3500088D35000838
:1000A0008D3500088D3500088D3500088D35000828
:1000B0008D3500088D3500088D3500088D35000818
:1000C0008D3500088D3500088D3500088D35000808
:1000D0008D3500088D3500088D3500088D350008F8
:1000E0008D3500088D3500088D35000800000000B2
:1000F0000000000000000000000000000000000000
:0C01000000000000000000005FF808F1A3
:1001100010B5054C237833B9044B13B10448AFF341
:1001200000800123237010BDC009002000000000E2
:100130008896000808B5034B1BB103490348AFF389
:10014000008008BD00000000C40900208896000857
:1001500081F0004102E000BF83F0004330B54FEA78
:1001600041044FEA430594EA050F08BF90EA020FE5
:100170001FBF54EA000C55EA020C7FEA645C7FEA78
:10018000655C00F0E2804FEA5454D4EB5555B8BF9B
:100190006D420CDD2C4480EA020281EA030382EA0C
:1001A000000083EA010180EA020281EA0303362D9E
:1001B00088BF30BD11F0004F4FEA01314FF4801C71
:1001C0004CEA113102D0404261EB410113F0004F83
:1001D0004FEA03334CEA133302D0524263EB43033A
:1001E00094EA050F00F0A780A4F10104D5F1200ED8
:1001F0000DDB02FA0EFC22FA05F2801841F1000133
:1002000003FA0EF2801843FA05F359410EE0A5F106
:1002100020050EF1200E012A03FA0EFC28BF4CF037
:10022000020C43FA05F3C01851EBE37101F00045ED
:1002300007D54FF0000EDCF1000C7EEB00006EEBFA
:100240000101B1F5801F1BD3B1F5001F0CD3490884
:100250005FEA30004FEA3C0C04F101044FEA4452DB
:1002600012F5800F80F09A80BCF1004F08BF5FEA62
:10027000500C50F1000041EB045141EA050130BD42
:100280005FEA4C0C404141EB0101013C28BFB1F554
:10029000801FE9D291F0000F04BF01460020B1FA9F
:1002A00081F308BF2033A3F10B03B3F120020CDA72
:1002B0000C3208DD02F1140CC2F10C0201FA0CF050
:1002C00021FA02F10CE002F11402D8BFC2F1200CB5
:1002D00001FA02F120FA0CFCDCBF41EA0C0190406B
:1002E000E41AA2BF01EB0451294330BD6FEA0404B4
:1002F0001F3C1CDA0C340EDC04F11404C4F120029F
:1003000020FA04F001FA02F340EA030021FA04F3B0
:1003100045EA030130BDC4F10C04C4F1200220FA07
:1003200002F001FA04F340EA0300294630BD21FA45
:1003300004F0294630BD94F0000F83F4801306BF0B
:1003400081F480110134013D4EE77FEA645C18BFFF
:100350007FEA655C29D094EA050F08BF90EA020F96
:1003600005D054EA000C04BF1946104630BD91EA8E
:10037000030F1EBF0021002030BD5FEA545C05D191
:100380004000494128BF41F0004130BD14F58004D0
:100390003CBF01F5801130BD01F0004545F0FE4144
:1003A00041F470014FF0000030BD7FEA645C1ABF79
:1003B000194610467FEA655C1CBF0B46024650EAB0
:1003C000013406BF52EA033591EA030F41F40021DC
:1003D00030BD00BF90F0000F04BF0021704730B562
:1003E0004FF4806404F132044FF000054FF0000137
:1003F00050E700BF90F0000F04BF0021704730B5F8
:100400004FF4806404F1320410F0004548BF4042CC
:100410004FF000013EE700BF42004FEAE2014FEA21
:1004200031014FEA02701FBF12F07F4393F07F4FFC
:1004300081F06051704732F07F4208BF704793F0FF
:100440007F4F04BF41F40021704730B54FF4607412
:1004500001F0004521F000411CE700BF50EA010215
:1004600008BF704730B54FF000050AE050EA0102BE
:1004700008BF704730B511F0004502D5404261EB2E
:1004800041014FF4806404F132045FEA915C3FF46F
:10049000D8AE4FF003025FEADC0C18BF03325FEA0C
:1004A000DC0C18BF033202EBDC02C2F1200300FABD
:1004B00003FC20FA02F001FA03FE40EA0E0021FAE2
:1004C00002F11444BDE600BF4FEA4102B2F1E0433D
:1004D00024BFB3F5001CDCF1FE5C0DD901F0004C2B
:1004E0004FEAC0024CEA5070B2F1004F40EB83007B
:1004F00008BF20F00100704711F0804F21D113F1A7
:100500003872BCBF01F00040704741F480114FEADF
:100510005252C2F11802C2F1200C10FA0CF320FA68
:1005200002F018BF40F001004FEAC1234FEAD32385
:1005300003FA0CFC40EA0C0023FA02F34FEA4303EF
:10054000CCE77FEA625307D150EA01331EBF4FF078
:10055000FE4040F44000704701F0004040F0FE4093
:1005600040F40000704700BF80F0004002E000BF90
:1005700081F0004142001FBF5FEA410392EA030F8E
:100580007FEA226C7FEA236C6AD04FEA1262D2EBD8
:100590001363C1BFD218414048404140B8BF5B42DD
:1005A000192B88BF704710F0004F40F4000020F076
:1005B0007F4018BF404211F0004F41F4000121F08C
:1005C0007F4118BF494292EA030F3FD0A2F10102D6
:1005D00041FA03FC10EB0C00C3F1200301FA03F114
:1005E00000F0004302D5494260EB4000B0F5000F37
:1005F00013D3B0F1807F06D340084FEA310102F1F6
:100600000102FE2A51D2B1F1004F40EBC25008BFA7
:1006100020F0010040EA03007047490040EB000071
:10062000013A28BFB0F5000FEDD2B0FA80FCACF172
:10063000080CB2EB0C0200FA0CF0AABF00EBC2509F
:1006400052421843BCBFD0401843704792F0000F8D
:1006500081F4000106BF80F400000132013BB5E7E0
:100660004FEA41037FEA226C18BF7FEA236C21D056
:1006700092EA030F04D092F0000F08BF08467047BB
:1006800090EA010F1CBF0020704712F07F4F04D189
:10069000400028BF40F00040704712F100723CBF9C
:1006A00000F50000704700F0004343F0FE4040F4C6
:1006B000000070477FEA226216BF08467FEA236384
:1006C0000146420206BF5FEA412390EA010F40F46F
:1006D000800070474FF0000304E000BF10F00043BB
:1006E00048BF40425FEA000C08BF704743F09643A2
:1006F00001464FF000001CE050EA010208BF7047BD
:100700004FF000030AE000BF50EA010208BF704743
:1007100011F0004302D5404261EB41015FEA010C58
:1007200002BF84460146002043F0B64308BFA3F150
:100730008053A3F50003BCFA8CF2083AA3EBC25332
:1007400010DB01FA02FC634400FA02FCC2F1200251
:10075000BCF1004F20FA02F243EB020008BF20F088
:100760000100704702F1200201FA02FCC2F12002EE
:1007700050EA4C0021FA02F243EB020008BF20EAE3
:10078000DC7070474FF0FF0C1CEAD0521EBF1CEA11
:10079000D15392EA0C0F93EA0C0F6FD01A4480EAFF
:1007A000010C400218BF5FEA41211ED04FF00063E8
:1007B00043EA501043EA5111A0FB01310CF0004014
:1007C000B1F5000F3EBF490041EAD3715B0040EA3A
:1007D000010062F17F02FD2A1DD8B3F1004F40EB0A
:1007E000C25008BF20F00100704790F0000F0CF0DD
:1007F000004C08BF49024CEA502040EA51207F3AA1
:10080000C2BFD2F1FF0340EAC250704740F400007B
:100810004FF00003013A5DDC12F1190FDCBF00F06C
:1008200000407047C2F10002410021FA02F1C2F11A
:10083000200200FA02FC5FEA310040F1000053EAB6
:100840004C0308BF20EADC70704792F0000F00F004
:10085000004C02BF400010F4000F013AF9D040EA0A
:100860000C0093F0000F01F0004C02BF490011F49E
:10087000000F013BF9D041EA0C018FE70CEAD1539C
:1008800092EA0C0F18BF93EA0C0F0AD030F0004C1C
:1008900018BF31F0004CD8D180EA010000F00040D0
:1008A000704790F0000F17BF90F0004F084691F08E
:1008B000000F91F0004F14D092EA0C0F01D14202C8
:1008C0000FD193EA0C0F03D14B0218BF084608D191
:1008D00080EA010000F0004040F0FE4040F40000DB
:1008E000704740F0FE4040F4400070474FF0FF0C6E
:1008F0001CEAD0521EBF1CEAD15392EA0C0F93EAB5
:100900000C0F69D0A2EB030280EA010C49024FEA06
:10091000402037D04FF0805343EA111143EA1013BF
:100920000CF000408B4238BF5B0042F17D024FF477
:10093000000C8B4224BF5B1A40EA0C00B3EB510F52
:1009400024BFA3EB510340EA5C00B3EB910F24BF3B
:10095000A3EB910340EA9C00B3EBD10F24BFA3EBC0
:10096000D10340EADC001B0118BF5FEA1C1CE0D188
:10097000FD2A3FF650AF8B4240EBC25008BF20F03B
:10098000010070470CF0004C4CEA50207F32C2BF8F
:10099000D2F1FF0340EAC250704740F400004FF02C
:1009A0000003013A37E792F0000F00F0004C02BF5D
:1009B000400010F4000F013AF9D040EA0C0093F027
:1009C000000F01F0004C02BF490011F4000F013B81
:1009D000F9D041EA0C0195E70CEAD15392EA0C0FE9
:1009E00008D142027FF47DAF93EA0C0F7FF470AF21
:1009F000084676E793EA0C0F04D14B023FF44CAF64
:100A000008466EE730F0004C18BF31F0004CCAD1F8
:100A100030F000427FF45CAF31F000437FF43CAF34
:100A20005FE700BF42000ED2B2F1FE4F0BD34FF092
:100A30009E03B3EB126209D44FEA002343F0004354
:100A400023FA02F070474FF00000704712F1610F77
:100A500001D1420202D14FF0FF3070474FF0000049
:100A6000704700BF844641EA000313F0030349D1F5
:100A7000403A23D30B6803604B6843608B68836004
:100A8000CB68C3600B6903614B6943618B69836108
:100A9000CB69C3610B6A03624B6A43628B6A8362F0
:100AA000CB6AC3620B6B03634B6B43638B6B8363D8
:100AB000CB6BC36340304031403ADBD230320BD392
:100AC0000B6803604B6843608B688360CB68C360CE
:100AD00010301031103AF3D20C3205D351F8043BE8
:100AE00040F8043B043AF9D2043208D0D2071CBFC4
:100AF00011F8013B00F8013B01D30B8803806046ED
:100B0000704700BF082A13D38B07B1D010F003033E
:100B1000AED0C3F10403D21ADB071CBF11F8013BAE
:100B200000F8013BA4D331F8023B20F8023B9FE7D9
:100B3000043AD9D3013A11F8013B00F8013BF9D24C
:100B40000B7803704B7843708B78837060467047E6
:100B500070B54FF0FF0C4CF4E06C1CEA11541DBF53
:100B60001CEA135594EA0C0F95EA0C0F00F0DEF81E
:100B70002C4481EA030621EA4C5123EA4C5350EA03
:100B8000013518BF52EA033541F4801143F4801354
:100B900038D0A0FB02CE4FF00005E1FB02E506F0E5
:100BA0000042E0FB03E54FF00006E1FB03569CF03A
:100BB000000F18BF4EF0010EA4F1FF04B6F5007F40
:100BC00064F5407404D25FEA4E0E6D4146EB0606B2
:100BD00042EAC62141EA55514FEAC52040EA5E503B
:100BE0004FEACE2EB4F1FD0C88BFBCF5E06F1ED8E5
:100BF000BEF1004F08BF5FEA500E50F1000041EB1C
:100C0000045170BD06F0004646EA010140EA0200C8
:100C100081EA0301B4EB5C04C2BFD4EB0C0541EAEA
:100C2000045170BD41F480114FF0000E013C00F3FF
:100C3000AB8014F1360FDEBF002001F0004170BD23
:100C4000C4F10004203C35DA0C341BDC04F114043C
:100C5000C4F1200500FA05F320FA04F001FA05F2C8
:100C600040EA020001F0004221F0004110EBD37095
:100C700021FA04F642EB06015EEA430E08BF20EAC1
:100C8000D37070BDC4F10C04C4F1200500FA04F364
:100C900020FA05F001FA04F240EA020001F00041F6
:100CA00010EBD37041F100015EEA430E08BF20EA69
:100CB000D37070BDC4F1200500FA05F24EEA020EB1
:100CC00020FA04F301FA05F243EA020321FA04F0E0
:100CD00001F0004121FA04F220EA020000EBD37097
:100CE0005EEA430E08BF20EAD37070BD94F0000F97
:100CF0000FD101F00046400041EB010111F4801FCB
:100D000008BF013CF7D041EA060195F0000F18BF7B
:100D1000704703F00046520043EB030313F4801FB7
:100D200008BF013DF7D043EA0603704794EA0C0F71
:100D30000CEA135518BF95EA0C0F0CD050EA410687
:100D400018BF52EA4306D1D181EA030101F0004104
:100D50004FF0000070BD50EA410606BF104619462C
:100D600052EA430619D094EA0C0F02D150EA013638
:100D700013D195EA0C0F05D152EA03361CBF104679
:100D800019460AD181EA030101F0004141F0FE4118
:100D900041F470014FF0000070BD41F0FE4141F49C
:100DA000780170BD70B54FF0FF0C4CF4E06C1CEA9C
:100DB00011541DBF1CEA135594EA0C0F95EA0C0F51
:100DC00000F0A7F8A4EB050481EA030E52EA03350C
:100DD0004FEA013100F088804FEA03334FF080552D
:100DE00045EA131343EA12634FEA022245EA11155A
:100DF00045EA10654FEA00260EF000419D4208BF0B
:100E0000964244F1FD0404F5407402D25B084FEAB7
:100E10003202B61A65EB03055B084FEA32024FF463
:100E200080104FF4002CB6EB020E75EB030E22BFC0
:100E3000B61A754640EA0C005B084FEA3202B6EB80
:100E4000020E75EB030E22BFB61A754640EA5C002F
:100E50005B084FEA3202B6EB020E75EB030E22BFBF
:100E6000B61A754640EA9C005B084FEA3202B6EBC0
:100E7000020E75EB030E22BFB61A754640EADC007F
:100E800055EA060E18D04FEA051545EA16754FEAE1
:100E900006164FEAC30343EA52734FEAC2025FEAFF
:100EA0001C1CC0D111F4801F0BD141EA00014FF08E
:100EB00000004FF0004CB6E711F4801F04BF01435F
:100EC0000020B4F1FD0C88BFBCF5E06F3FF6AFAE7B
:100ED000B5EB030C04BFB6EB020C5FEA500C50F10B
:100EE000000041EB045170BD0EF0004E4EEA11318E
:100EF00014EB5C04C2BFD4EB0C0541EA045170BD95
:100F000041F480114FF0000E013C90E645EA060ED8
:100F10008DE60CEA135594EA0C0F08BF95EA0C0F06
:100F20003FF43BAF94EA0C0F0AD150EA01347FF44E
:100F300034AF95EA0C0F7FF425AF104619462CE725
:100F400095EA0C0F06D152EA03353FF4FDAE104688
:100F5000194622E750EA410618BF52EA43067FF4D9
:100F6000C5AE50EA41047FF40DAF52EA43057FF469
:100F7000EBAE12E74FF0FF3C06E000BF4FF0010C74
:100F800002E000BF4FF0010C4DF804CD4FEA410CD8
:100F90007FEA6C5C4FEA430C18BF7FEA6C5C1BD0A5
:100FA00001B050EA410C0CBF52EA430C91EA030F26
:100FB00002BF90EA020F0020704710F1000F91EA83
:100FC000030F58BF994208BF90422CBFD8176FEA51
:100FD000E37040F0010070474FEA410C7FEA6C5C1F
:100FE00002D150EA013C07D14FEA430C7FEA6C5C26
:100FF000D6D152EA033CD3D05DF8040B704700BF52
:101000008446104662468C461946634600E000BF9F
:1010100001B5FFF7B7FF002848BF10F1000F01BD71
:101020004DF808EDFFF7F4FF0CBF012000205DF83C
:1010300008FB00BF4DF808EDFFF7EAFF34BF0120C1
:1010400000205DF808FB00BF4DF808EDFFF7E0FF5A
:1010500094BF012000205DF808FB00BF4DF808EDAB
:10106000FFF7CEFF94BF012000205DF808FB00BF12
:101070004DF808EDFFF7C4FF34BF012000205DF8F4
:1010800008FB00BF4FEA410C7FEA6C5C02D150EADA
:10109000013C0AD14FEA430C7FEA6C5C02D152EA70
:1010A000033C02D14FF0000070474FF00100704741
:1010B0004FEA410212F5001215D211D56FF4787380
:1010C000B3EB625212D94FEAC12343F0004343EA23
:1010D000505311F0004F23FA02F018BF40427047FE
:1010E0004FF00000704750EA013005D111F0004088
:1010F00008BF6FF0004070474FF00000704700BF1E
:1011000053B94AB9002908BF00281CBF4FF0FF316E
:101110004FF0FF3000F076B9ADF1080C6DE904CE68
:1011200000F006F8DDF804E0DDE9022304B07047C2
:101130002DE9F047089E0D4604468846002B4DD108
:101140008A42944668D9B2FA82F252B101FA02F3A5
:10115000C2F1200120FA01F10CFA02FC41EA030875
:1011600094404FEA1C41B8FBF1F71FFA8CFE01FBDB
:10117000178807FB0EF0230C43EA084398420AD96C
:101180001CEB030307F1FF3580F01E81984240F20B
:101190001B81023F63441B1AB3FBF1F001FB1033C8
:1011A00000FB0EFEA4B244EA0344A6450AD91CEB98
:1011B000040400F1FF3380F00981A64540F2068166
:1011C000644402380021A4EB0E0440EA07401EB13B
:1011D0000023D440C6E90043BDE8F0878B4208D91C
:1011E000002E00F0EE800021C6E900050846BDE8AB
:1011F000F087B3FA83F100294AD1AB4202D382428D
:1012000000F2FC80841A65EB030301209846002E4F
:10121000E2D0C6E90048DFE702B9FFDEB2FA82F2A7
:10122000002A40F09180A1EB0C0001214FEA1C47FD
:101230001FFA8CFEB0FBF7F307FB1300250C45EA01
:1012400000450EFB03F0A84208D91CEB050503F18D
:10125000FF3802D2A84200F2CE8043462D1AB5FBD9
:10126000F7F007FB10550EFB00FEA4B244EA05445C
:10127000A64508D91CEB040400F1FF3502D2A645AF
:1012800000F2B6802846A4EB0E0440EA03409EE735
:10129000C1F120078B4022FA07FC4CEA030C25FA27
:1012A00007FA4FEA1C49BAFBF9F820FA07F309FBE1
:1012B00018AA8D401FFA8CFE1D4300FA01F308FBAB
:1012C0000EF02C0C44EA0A44A04202FA01F20BD9B7
:1012D0001CEB040408F1FF3A80F08880A04240F241
:1012E0008580A8F102086444241AB4FBF9F009FBD4
:1012F000104400FB0EFEADB245EA0444A64508D9F1
:101300001CEB040400F1FF356CD2A6456AD9023803
:10131000644440EA0840A0FB0295A4EB0E04AC42F2
:10132000C846AE4656D353D0002E69D0B3EB080260
:1013300064EB0E0422FA01F304FA07F71F43CC40D2
:10134000C6E90074002147E70CFA02FCC2F1200153
:1013500025FA01F34FEA1C4720FA01F195400D43AD
:10136000B3FBF7F107FB11331FFA8CFE280C40EAA0
:10137000034001FB0EF3834204FA02F408D91CEB8C
:10138000000001F1FF382FD283422DD90239604489
:10139000C01AB0FBF7F307FB1300ADB245EA0045F6
:1013A00003FB0EF0A84208D91CEB050503F1FF383A
:1013B00016D2A84214D9023B6544281A43EA0141D7
:1013C00038E73146304607E72F46E4E61846F9E6A7
:1013D0004B45A9D2B9EB020865EB0C0E0138A3E727
:1013E0004346EAE7284694E74146D1E7D0467BE703
:1013F0006444023847E7023B65442FE7084606E7A6
:101400003146E9E6704700BF84B00F4B9A6942F05D
:1014100020029A619A6902F020020192019A9A6967
:1014200042F004029A619A6902F004020292029A5E
:101430009A6942F008029A619B6903F008030393DA
:10144000039B04B0704700BF0010024010B586B087
:10145000002302930393049305930268114B9A426D
:1014600001D006B010BD104CA36943F00803A3617E
:10147000A36903F008030093009B4FF440630293B9
:10148000122303930323059302A9084800F09EFD4D
:10149000E36943F48003E361E36903F480030193A8
:1014A000019BDEE70058004000100240000C0140A4
:1014B00000B583B001904FF6FF73012201A90348E4
:1014C00001F0D3FF019803B05DF804FB340A00205B
:1014D00072B6FEE700B591B02822002106A802F0FE
:1014E00081F800230193029303930493059301224F
:1014F00006924FF4803307930A9202220D920E93C4
:101500004FF4E0130F9306A801F0E4FB80B90F231A
:10151000019302210291002303934FF4806204920D
:10152000059301A801F016FE20B911B05DF804FB87
:10153000FFF7CEFFFFF7CCFF70B58AB000F0ACFC30
:10154000FFF7C8FFFFF760FF00F02CFC644C20465B
:1015500002F0FCF8642000F0C3FC204602F0F6F82C
:10156000642000F0BDFC204602F0F0F8642000F09A
:10157000B7FC00F0BDF905E05A4802F0E7F85A4818
:1015800000F0F0F900F067FA0028F5D1574802F0B2
:10159000DDF800F044FB0146E8B9082207A909A8D4
:1015A00000F04DFB0146D0B1514802F06DF80DF14D
:1015B0001A0000F010FB0146B0B14E4802F064F88A
:1015C000132000F050FA0146A0B14B4802F05CF83D
:1015D00000F0EAFA5CE0494802F056F8DDE70999C4
:1015E000474802F051F8E2E7BDF81A10454802F00A
:1015F0004BF8E5E7444802F0A9F8E9E70498FFF75B
:101600006DF84249FFF772F904460398FFF766F850
:101610003E49FFF76BF906462046FEF7FDFE0446FD
:101620000D463046FEF7F8FECDE9000122462B4676
:10163000374802F029F80398FFF750F83349FFF7CD
:1016400055F93449FFF79EF83349FFF74FF9FFF793
:10165000E9F980B200F024FA0498FFF73FF82B492B
:10166000FFF744F92D49FFF78DF8FFF7DBF980B25A
:1016700000F033FA40F2024000F04CFA0DF116018E
:1016800006A800F065FA014660B1254801F0FCFFAC
:1016900003A904A800F0ACF90028AFD0214802F05B
:1016A00055F8C8E7BDF81800FFF714F8FEF7B4FEC8
:1016B00000221D4BFEF750FD00221C4BFFF748FA9D
:1016C00000224FF07C53FFF743FAFEF7FDFEFEF7D2
:1016D000A3FE02460B46164801F0D6FFD8E700BF2E
:1016E000A0960008B496000840420F00D09600086B
:1016F0002897000880970008D0970008F096000807
:1017000060970008A8970008FC97000800007A443A
:101710004898000800FF7F470000C8420000484387
:10172000789800081C9800080000D040000059403C
:10173000B09800080278407840EA022070470278AA
:1017400043781B0443EA0263827843EA0223C078A9
:1017500018437047002305E010F803C001F803C0E8
:1017600001339BB29342F7D370478446FF20002297
:101770000EE04000C0B2013BDBB23BB110F0800F85
:10178000F7D0400080F03100C0B2F4E7013292B2ED
:101790008A4204D21CF8023058400823EDE7704713
:1017A00010B51446FFF7E1FFA04201D1002010BDA3
:1017B0000120FCE72DE9F04190B00E4602EB420219
:1017C00097B23A46694600F0ADF80FFA80F8B8F1E2
:1017D000000F1ED100252C46BC421AD2A31C1DF8B6
:1017E000032002210DEB0400FFF7DAFF00B278B905
:1017F0006B1C9BB21DF8042072550235ADB204F18A
:1018000040026A4412F83F2CF2540334A4B2E3E7D6
:101810008046404610B0BDE8F08138B50C4615460C
:10182000FFF7C8FF80B903460BE004EB430214F84E
:10183000131092F801C04CEA012C24F813C00133B4
:10184000DBB299B2A942F0D338BD4B1C9BB24FEA30
:10185000122C00F801C00231C25488B2704770B532
:1018600005460C464B1C9BB2110A0155A61CB6B28C
:10187000C254B01E02212844FFF777FFA855E01C90
:1018800080B270BD08B500F05DF800B208BD2DE96A
:10189000F041570807EB470712F0010420D10D462D
:1018A000BFB23A4600F03EF80FFA80F8B8F1000FE8
:1018B00018D12646BC4215D2A31CEA5C0221281985
:1018C000FFF76EFF00B280B9731C9BB22A5DAA5568
:1018D0000236B6B22A195278EA540334A4B2E9E7C0
:1018E0004FF004084046BDE8F0818046FAE700006A
:1018F00008B50948094B0360094B43600023836026
:10190000C3604FF48042026143618361C36103623B
:1019100000F08EFE08BD00BFDC090020005800402A
:10192000A086010000B583B01346642200920A46E7
:101930004100034801F016F840B203B05DF804FB23
:10194000DC09002000B583B01346642200920A46E9
:101950004100034800F04AFF40B203B05DF804FBC9
:10196000DC09002010B50A4CA4FB0034A4094FF494
:101970007A7303FB140000B1013400F0C5FA054B83
:10198000984200D20134204600F0AAFA10BD00BFF0
:10199000D34D62100001010108B501220249442023
:1019A000FFF7D0FF00B208BD0000002030B583B0C3
:1019B00005460C46022201A94420FFF72EFFBDF880
:1019C000043045F2735202FB03F35B13A3F52F437C
:1019D000C83B2B60BDF8063043F6095202FB03F307
:1019E0005B13A3F5BB53103B236003B030BD000075
:1019F00038B504460D46FFF7CFFF00B138BD044BA4
:101A00001888FFF7AFFF29462046FFF7CFFFF5E71D
:101A10000200002010B582B0044689238DF80730FB
:101A200001220DF107014420FFF78CFF00B208B13D
:101A300002B010BD4FF47A70FFF794FF022269469E
:101A40004420FFF7EAFEBDF80020BDF8023043EA6B
:101A500002432360ECE700B583B001A8FFF7DAFF8B
:101A600003B05DF804FB10B582B0044643F2156282
:101A700000216846FFF7E9FE014622466846FFF767
:101A8000EEFE024669462920FFF7FCFE044610B12F
:101A9000204602B010BD4FF47A70FFF763FFF7E7FE
:101AA00010B582B0044643F2246200216846FFF775
:101AB000CCFE014622466846FFF7D1FE0246694643
:101AC0002920FFF7DFFE044610B1204602B010BD0A
:101AD0004FF47A70FFF746FFF7E710B582B004467F
:101AE00043F21E6200216846FFF7AFFE0146224620
:101AF0006846FFF7B4FE024669462920FFF7C2FE9A
:101B0000044610B1204602B010BD4FF47A70FFF7C2
:101B100029FFF7E710B582B0044643F22F62002197
:101B20006846FFF792FE014622466846FFF797FE99
:101B3000024669462920FFF7A5FE044610B120465B
:101B400002B010BD4FF47A70FFF70CFFF7E700000A
:101B500070B582B005460C4643F2396200216846F2
:101B6000FFF773FE024669462920FFF78BFE064603
:101B700010B1304602B070BD0A48FFF7F3FE0422F0
:101B800069462920FFF783FE06460028F1D1684602
:101B9000FFF7D0FD28800DF10200FFF7CBFD20807C
:101BA000E7E700BFA086010010B582B043F6EF72F0
:101BB000002101A8FFF749FE024601A92920FFF7ED
:101BC00061FE044610B1204602B010BD4FF47A7099
:101BD000FFF7C8FEF7E730B583B0044643F25B6217
:101BE000002101A8FFF731FE024601A92920FFF7D5
:101BF00049FE054610B1284603B030BD45F2F0500D
:101C0000FFF7B0FE022201A92920FFF740FE05469A
:101C10000028F0D101A8FFF78DFD2080EBE700B58B
:101C200083B043F27C62002101A8FFF70EFE02465A
:101C300001A92920FFF726FE03B05DF804FBF0B5EB
:101C400087B007460E4614464EF20212002101A844
:101C5000FFF7FBFD024601A92920FFF713FE054609
:101C600010B1284607B0F0BD42F21070FFF77AFEBF
:101C70000C2201A92920FFF70AFE05460028F0D111
:101C800001A8FFF75CFD38602246314602A8FFF745
:101C900061FDE6E782B00E4B9A6942F001029A615B
:101CA0009A6902F001020092009ADA6942F08052C9
:101CB000DA61DB6903F080530193019B054A5368A5
:101CC00023F0E06343F00073536002B0704700BF3D
:101CD0000010024000000140FEE7FEE7FEE7FEE7DD
:101CE000FEE770477047704708B500F0E7F808BD99
:101CF0000120704708B501F04BFC162303604FF03C
:101D0000FF3008BD08B54FF0FF31FFF7F3FFFEE7E6
:101D100070B50C461646002506E0AFF3008021465C
:101D200001F8010B01350C46B542F6DB304670BDBB
:101D300070B50C461646002504E014F8010BFFF7B9
:101D4000B7FB0135B542F8DB304670BD08B5034638
:101D50000B4A126842B10A4A106803446A46934229
:101D600006D8074A136008BD054A06491160F2E724
:101D700001F00EFC0C2303604FF0FF30F3E700BFCF
:101D8000300A0020C80A00204FF0FF3070474FF49F
:101D900000534B60002070470120704700207047BF
:101DA0007047000008B50A480A4B03604FF4E1335E
:101DB000436000238360C36003610C22426183613E
:101DC000C36101F023FB00B908BDFFF781FBFBE70E
:101DD000340A00200044004010B586B0002302936E
:101DE0000393049305930268164B9A4201D006B000
:101DF00010BD03F5E633DA6942F40032DA61DA69DC
:101E000002F400320092009A9A6942F004029A6148
:101E10009B6903F004030193019B042302930223B3
:101E2000039303230593084C02A9204600F0CEF843
:101E30000823029300230393049302A9204600F091
:101E4000C5F8D4E7004400400008014010B504463E
:101E50000E4B18784FF47A73B3FBF0F30C4A10680A
:101E6000B0FBF3F000F09EF868B90F2C01D9012007
:101E70000AE0002221464FF0FF3000F05BF8054BEE
:101E80001C60002000E0012010BD00BF0800002001
:101E9000040000200C00002008B5074A136843F036
:101EA00010031360032000F033F80F20FFF7CEFF7C
:101EB000FFF7F0FE002008BD00200240034A116831
:101EC000034B1B780B441360704700BF780A002057
:101ED00008000020014B1868704700BF780A0020F6
:101EE00038B50446FFF7F6FF0546B4F1FF3F02D0D0
:101EF000044B1B781C44FFF7EDFF401BA042FAD3B4
:101F000038BD00BF080000200048704700080101EC
:101F1000074AD36823F4E0631B041B0C000200F49F
:101F2000E060034343F0BF6343F40033D360704782
:101F300000ED00E000B5194BDB68C3F30223C3F1E9
:101F4000070CBCF1040F28BF4FF0040C03F1040E82
:101F5000BEF1060F18D9033B4FF0FF3E0EFA0CFC02
:101F600021EA0C0199400EFA03F322EA0303194314
:101F700000280BDB0901C9B200F1604000F56140A7
:101F800080F800135DF804FB0023E5E700F00F0084
:101F90000901C9B2024B1954F4E700BF00ED00E09B
:101FA00014ED00E00138B0F1807F0BD24FF0E02358
:101FB0005861054AF02182F8231000209861072219
:101FC0001A6170470120704700ED00E070B582B0E3
:101FD0000024A446A6E0804DAA4210D007D97F4D28
:101FE000AA420CD005F58035AA4208D013E0A5F529
:101FF0008015AA4203D005F57025AA4207D18A6848
:10200000002A58D0012A51D04361082403E0A5F5E5
:102010008015AA42F3D0BEF1FF0F4ED80646BEF19E
:10202000FF0F4CD84FEA8C0233680F25954023EA06
:10203000050304FA02F2134333604B6813F0805F28
:102040006ED0674B9A6942F001029A619B6903F076
:1020500001030193019B4FEA9C02951C614B53F8CD
:1020600025600CF003039D000F23AB4026EA030616
:102070005D4B984229D003F58063984200F08E8032
:1020800003F58063984200F08B8003F580639842EB
:1020900019D004231AE0CC68BDE7CC680434BAE751
:1020A000CC680834B7E7CC680C34B4E70361082483
:1020B000B1E70024AFE70424ADE7061DAFE7ACF1BC
:1020C00008029200B0E7032300E00023AB40334353
:1020D0000232444D45F822304B6813F4803F61D002
:1020E000424A136843EA0E0313604B6813F4003F3F
:1020F0005ED03E4A536843EA0E0353604B6813F4C4
:10210000801F5BD0394A936843EA0E0393604B68A3
:1021100013F4001F58D0354AD36843EA0E03D36046
:102120000CF1010C0A6832FA0CF353D0012303FAC4
:102130000CF302EA030E33EA0202F1D14A68122AD2
:102140003FF649AF122A3FF666AF01A555F822F0D7
:10215000FF1F000897200008A1200008B3200008F6
:102160001720000817200008172000081720000873
:102170001720000817200008172000081720000863
:102180001720000817200008172000081720000853
:10219000172000089B200008A7200008012395E7CE
:1021A000022393E7114A136823EA0E0313609CE7A6
:1021B0000E4A536823EA0E0353609FE70B4A936865
:1021C00023EA0E039360A2E7084AD36823EA0E03CA
:1021D000D360A5E702B070BD0000221000003110EE
:1021E00000100240000001400008014000040140CE
:1021F00003685A6912F4806F01D1002070476FF4B0
:1022000080625A6100230363202280F83D2080F819
:102210003E30026C42F00402026480F83C3001203F
:1022200070472DE9F04107460D4690461E4624E0D2
:10223000FFF750FE069BC01AB04200D8EEB900234B
:102240003B63202287F83D2087F83E303A6C42F00D
:1022500020023A6487F83C3001201EE03B689C690C
:1022600025EA040C1FFA8CFCBCFA8CFC4FEA5C1CBF
:10227000E04511D1B6F1FF3FDAD1C5F30743012B99
:10228000ECD13B685B6925EA030C1FFA8CFCBCFAB5
:102290008CFC4FEA5C1CEBE70020BDE8F0812DE9E7
:1022A000F04105460E46174698463DE01A6842F44E
:1022B00000721A602B686FF480625A6100232B63EE
:1022C000202285F83D2085F83E302A6C42F0040239
:1022D0002A6485F83C30012034E0FFF7FBFDA0EBD9
:1022E0000800B84200D8FFB900232B63202285F8EC
:1022F0003D2085F83E302A6C42F020022A6485F8A1
:102300003C3001201EE02B689C6926EA0404A4B23C
:10231000003C18BF0124A4B12B685A6912F4806FE5
:10232000C4D1B7F1FF3FD8D1C6F30743012BEAD19F
:102330002B685C6926EA0404A4B2003C18BF01249F
:10234000E9E70020BDE8F081F0B583B004460D4612
:1023500016461F46C36A082B0DD0012B0BD013F570
:10236000803F08D0036B122B0AD10268136843F434
:102370008073136004E02268136843F48073136071
:102380000097334600224FF001112046FFF749FF26
:1023900080B92369B3F5804F16D1236805F0FE0597
:1023A0001D613B46324613492046FFF778FFF8B9D6
:1023B00003B0F0BD23681B6813F4807F02D04FF494
:1023C000007323640320F3E7EB11226803F0060394
:1023D00043F0F00313613B46324607492046FFF7BE
:1023E0005EFF18B92368EDB21D61DAE70120DFE76F
:1023F0000120DDE702000100080001002DE9F041A5
:1024000084B004460D4616461F46C26A01680B6832
:1024100043F480630B60082A0DD0012A0BD012F51B
:10242000803F08D0036B112B0AD10268136843F474
:102430008073136004E02268136843F480731360B0
:102440000097334600224FF001112046FFF7E9FEC6
:1024500098B92369B3F5804F19D1236845F0010578
:10246000EDB21D613B4632462A492046FFF717FF71
:1024700000284CD104B0BDE8F08123681B6813F438
:10248000807F02D04FF4007323640320F2E74FEA09
:10249000E51808F00608236848F0F0021A613B4688
:1024A00032461D492046FFF7FAFE08B10120E1E758
:1024B0002368EDB21D613B46324616492046FFF7C0
:1024C000EEFE08B10120D5E7002203922368596986
:1024D0000391996903910399196841F48071196016
:1024E000009733464FF001112046FFF79AFE20B9BE
:1024F000226848F0F1031361B4E723681B6813F402
:10250000807F02D04FF4007323640320B2E70120E0
:10251000B0E700BF020001000800010070B50446EA
:102520000D46164623685B6913F0800F1CD12046C8
:10253000FFF75EFED0B9B5F1FF3FF3D0FFF7CAFC5D
:10254000801BA84201D8002DECD100232363202258
:1025500084F83D2084F83E30226C42F02002226450
:1025600084F83C30012000E0002070BD0120FCE731
:1025700070B504460D46164623685B6913F0040FD8
:102580001CD12046FFF734FED0B9B5F1FF3FF3D0A0
:10259000FFF7A0FC801BA84201D8002DECD100233E
:1025A0002363202284F83D2084F83E30226C42F0E0
:1025B0002002226484F83C30012000E0002070BD3D
:1025C0000120FCE770B505460C4616462B68596994
:1025D00011F0400F29D1596911F0100F15D1FFF7F3
:1025E00079FC801BA04201D8002CEFD100232B6383
:1025F000202285F83D2085F83E302A6C42F02002EA
:102600002A6485F83C30012070BD6FF010025A61D9
:1026100000232B63202285F83D2085F83E302A6C6C
:102620002A6485F83C300120EEE70020ECE700004A
:10263000002800F0CC8070B5044690F83D30002BA7
:1026400077D0242384F83D302268136823F00103F7
:1026500013602268136843F4004313602268136810
:1026600023F40043136000F031FE62685A4B9A4233
:1026700064D85A4B98428CBF00230123002B40F0B2
:10268000A8805749A1FB00318B0C25686A6822F0AD
:102690003F0242EA91426A6021680A6A22F03F02E0
:1026A00066684D4DAE424FD8013313430B6221682B
:1026B000CA6922F44F4222F0FF026668464B9E42EE
:1026C0004CD8431E7600B3FBF6F3013340F6FC70A2
:1026D000034278D0C3F30B031343CB6121680B682B
:1026E00023F0C003E269206A024313430B602168B0
:1026F0008B6823F4034323F0FF032269E06802435D
:1027000013438B602168CB6823F0FF036269A069E3
:1027100002431343CB602268136843F00103136044
:1027200000202064202384F83D30206384F83E009C
:1027300070BD80F83C30FEF789FE82E7294B984255
:102740008CBF0023012399E74FF4967505FB03F333
:10275000254DA5FB03539B090133A6E7A368BBB92D
:10276000451E06EB460CB5FBFCF50135C5F30B0524
:10277000B5FA85F56D0945BBC3B9013806EB4603CB
:10278000B0FBF3F30133C3F30B0343F40043A3E7BC
:10279000451E06EB860C0CEB8C0CB5FBFCF50135ED
:1027A000C5F30B05B5FA85F56D09E4E7013806EBCD
:1027B000860303EB8303B0FBF3F30133C3F30B0393
:1027C00043F4404388E7042386E7012384E701209C
:1027D00070470120ACE700BFA08601007F841E0087
:1027E00083DE1B43FF083D00D34D62102DE9F0430B
:1027F00085B004460F46914698460C9EFFF76AFB4B
:10280000054694F83D00C0B2202804D0022738467F
:1028100005B0BDE8F0830095192301224F492046F9
:10282000FFF7FFFC002840F0928094F83C30012B29
:1028300000F08F80012384F83C3023681A6812F07E
:10284000010F03D11A6842F001021A60226813686E
:1028500023F400631360212384F83D30102384F8AF
:102860003E3000232364C4F82490A4F82A80638DAA
:1028700023853B4BE3622B46324639462046FFF721
:1028800063FD0746002866D10023039323685A6935
:1028900003929B690393039B11E0236C042B01D0EB
:1028A0000127B4E72268136843F400731360F7E765
:1028B0002A4631462046FFF75BFE00282ED1238DA5
:1028C000002B36D02A4631462046FFF727FE002847
:1028D000E3D1626A236812781A61606A431C6362FA
:1028E000618D89B2013989B26185238D013B9BB22B
:1028F00023852268516911F0040FD9D0002BD7D05D
:1029000043781361636A01336362638D9BB2013B59
:102910009BB26385238D013B2385C9E7236C042B80
:1029200001D0012773E72268136843F40073136032
:10293000F7E72268136843F400731360202384F8D8
:102940003D30002384F83E3084F83C305FE70227B6
:102950005DE702275BE7012759E700BF020010008F
:102960000000FFFF2DE9F04389B004460F46914671
:102970009846109E00230793FFF7ACFA054694F89B
:102980003D00C0B2202804D00227384609B0BDE877
:10299000F08300951923012280492046FFF741FC6E
:1029A000002840F0708194F83C30012B00F06D81DC
:1029B000012384F83C3023681A6812F0010F03D118
:1029C0001A6842F001021A602268136823F4006357
:1029D0001360222384F83D30102384F83E30002316
:1029E0002364C4F82490A4F82A80638D23856C4B5B
:1029F000E3622B46324639462046FFF7FFFC074686
:102A0000002840F04481238D5BB9039323685A6901
:102A100003929A690392039A1A6842F400721A6048
:102A2000EEE0012B0FD0022B21D02268136843F473
:102A3000806313600023069323685A6906929B699A
:102A40000693069BDCE02268136823F4806313601E
:102A500072B60023049323685A6904929A69049217
:102A6000049A1A6842F400721A6062B6C8E02268DA
:102A7000136843F40063136072B600230593236860
:102A80005A6905929A690592059A1A6822F4806239
:102A90001A6062B6B4E02A4631462046FFF792FD3E
:102AA000002840F0F68023681A69636A1A70636A26
:102AB00001336362238D013B2385638D9BB2013B10
:102AC0009BB263859CE00095334600223549204641
:102AD000FFF7A7FB002840F0E0802268136823F48A
:102AE0008063136072B623681A69636A1A70636A36
:102AF00001336362238D013B2385638D9BB2013BD0
:102B00009BB26385284B1B68DB08284AA2FB032382
:102B10001B0A03EB8303C3EBC30307930799013934
:102B200007910799002928D023685A6912F0040FE9
:102B3000F4D01A6842F400721A6023681A69636A52
:102B40001A70636A01336362238D013B2385638DB1
:102B50009BB2013B9BB2638562B623681A69636AC4
:102B60001A70636A01336362238D013B2385638D91
:102B70009BB2013B9BB2638542E00023236320228A
:102B800084F83D2084F83E30226C42F0200222641A
:102B900062B684F83C300127F7E600BF020010005F
:102BA0000000FFFF040001000400002089B5F814B4
:102BB0002A4631462046FFF705FD00286FD12368DD
:102BC0001A69636A1A70626A531C6362238D013B3F
:102BD0002385638D9BB2013B9BB263852368596952
:102BE00011F0040F0CD01B695370636A01336362E8
:102BF000238D013B2385638D9BB2013B9BB2638593
:102C0000218D002936D00329D2D801293FF443AFC2
:102C100002297FF458AF009533460022214920460F
:102C2000FFF7FFFA002836D172B62268136843F422
:102C30000073136023681A69636A1A70636A013348
:102C40006362238D013B2385638D9BB2013B9BB265
:102C5000638562B623681A69636A1A70636A01330E
:102C60006362238D013B2385638D9BB2013B9BB245
:102C70006385C5E7202384F83D30002384F83E3087
:102C800084F83C3081E602277FE602277DE60127B3
:102C90007BE6012779E6012777E6012775E601271C
:102CA00073E600BF0400010082B0084B1B68084AAD
:102CB000A2FB03235B0A00FB03F3019300BF019B0C
:102CC0005A1E0192002BF9D102B070470400002077
:102CD000D34D6210002800F0F18170B582B0044637
:102CE000036813F0010F2CD0994B5B6803F00C03C1
:102CF000042B1DD0964B5B6803F00C03082B12D0FD
:102D00006368B3F5803F41D0002B55D103F1804378
:102D100003F504331A6822F480321A601A6822F428
:102D200080221A6037E08A4B5B6813F4803FE7D05B
:102D3000874B1B6813F4003F03D06368002B00F03F
:102D4000BF81236813F0020F75D0814B5B6813F0CD
:102D50000C0F5FD07E4B5B6803F00C03082B54D044
:102D60002369002B00F08A807A4B01221A60FFF75A
:102D7000B1F80546764B1B6813F0020F75D1FFF7CB
:102D8000A9F8401B0228F5D903209EE1704A136878
:102D900043F480331360636843B3FFF79BF8054641
:102DA0006B4B1B6813F4003FCBD1FFF793F8401B2C
:102DB0006428F5D9032088E1B3F5A02F09D0644B2E
:102DC0001A6822F480321A601A6822F480221A608B
:102DD000E1E703F18043A3F53C331A6842F4802213
:102DE0001A601A6842F480321A60D4E7FFF772F86A
:102DF0000546574B1B6813F4003FA2D0FFF76AF853
:102E0000401B6428F5D903205FE1514B5B6813F444
:102E1000803FA5D14E4B1B6813F0020F03D02369EE
:102E2000012B40F04F814A4A136823F0F80361698F
:102E300043EAC1031360236813F0080F33D0A3697A
:102E4000002B5CD0434B0122C3F88024FFF742F8EB
:102E500005463F4B5B6A13F0020F21D1FFF73AF8AA
:102E6000401B0228F5D903202FE1394A136823F0CB
:102E7000F803616943EAC1031360DCE7354B0022C4
:102E80001A60FFF727F80546314B1B6813F0020F55
:102E9000D1D0FFF71FF8401B0228F5D9032014E119
:102EA0000120FFF701FF236813F0040F00F0968064
:102EB000274BDB6913F0805F34D1254BDA6942F090
:102EC0008052DA61DB6903F080530193019B012595
:102ED000214B1B6813F4807F26D0E368012B3DD083
:102EE000002B53D103F1804303F504331A6A22F017
:102EF00001021A621A6A22F004021A6233E0154BC8
:102F00000022C3F88024FEF7E5FF0546104B5B6AFC
:102F100013F0020FC7D0FEF7DDFF401B0228F5D9E2
:102F20000320D2E00025D3E70B4A136843F48073F3
:102F30001360FEF7CFFF0646074B1B6813F4807F34
:102F4000CBD1FEF7C7FF801B6428F5D90320BCE076
:102F50000010024000004242007000405F4A136AC5
:102F600043F001031362E36833B3FEF7B3FF064691
:102F70005A4B1B6A13F0020F2FD1FEF7ABFF801BD9
:102F800041F288339842F3D903209EE0052B09D003
:102F9000524B1A6A22F001021A621A6A22F00402E3
:102FA0001A62E0E74D4B1A6A42F004021A621A6A8A
:102FB00042F001021A62D6E7FEF78CFF0646474B45
:102FC0001B6A13F0020F08D0FEF784FF801B41F24A
:102FD00088339842F3D9032077E0E5B9E369002B01
:102FE00072D03E4A526802F00C02082A56D0022BD8
:102FF00017D03B4B00221A66FEF76CFF0446374B96
:103000001B6813F0007F47D0FEF764FF001B022807
:10301000F5D9032059E0314AD36923F08053D361B5
:10302000DCE72F4B00221A66FEF754FF05462B4BB8
:103030001B6813F0007F06D0FEF74CFF401B0228F0
:10304000F5D9032041E0236AB3F5803F1AD0234924
:103050004B6823F47413226A606A024313434B6083
:103060001F4B01221A66FEF735FF04461B4B1B68F7
:1030700013F0007F0ED1FEF72DFF001B0228F5D9BB
:10308000032022E0154A536823F40033A1680B4360
:103090005360DCE7002018E0002016E0012B16D07A
:1030A0000E4B5B6803F48031226A914211D103F424
:1030B0007013626A93420ED1002006E0012070472F
:1030C000012002E0012000E0002002B070BD0120DC
:1030D000FBE70120F9E70120F7E700BF00100240FD
:1030E0000000424286B0174B0FCB0DF1180C0CE9D3
:1030F0000F0040F20123ADF80430134B5B6803F07E
:103100000C02082A02D0114806B07047C3F383426C
:1031100018326A4412F8100C13F4803F0DD00A4B99
:103120005B68C3F3404318336B4413F8143C074AFD
:1031300002FB00F0B0FBF3F0E6E7054B03FB00F009
:10314000E2E700BFD49800080010024000127A00A5
:1031500000093D00002800F0A08070B50D4604462F
:10316000524B1B6803F007038B420BD24F4A136884
:1031700023F007030B431360136803F007038B422C
:1031800040F08D80236813F0020F17D013F0040F66
:1031900004D0474A536843F4E0635360236813F054
:1031A000080F04D0424A536843F460535360404AC6
:1031B000536823F0F003A1680B435360236813F0B6
:1031C000010F31D06368012B20D0022B25D0384A63
:1031D000126812F0020F64D035494A6822F00302E7
:1031E00013434B60FEF776FE0646314B5B6803F0F7
:1031F0000C036268B3EB820F16D0FEF76BFE801BE8
:1032000041F288339842F0D9032045E0284A1268F9
:1032100012F4003FE0D101203EE0254A126812F08E
:10322000007FD9D1012037E0204B1B6803F0070352
:10323000AB420AD91D4A136823F007032B431360DE
:10324000136803F00703AB422DD1236813F0040F7A
:1032500006D0174A536823F4E063E1680B435360D8
:10326000236813F0080F07D0114A536823F4605302
:10327000216943EAC1035360FFF734FF0C4B5B68DD
:10328000C3F303130B4AD35CD8400B4B18600B4BB2
:103290001868FEF7DBFD002070BD0120704701209B
:1032A000FAE70120F8E70120F6E700BF002002401E
:1032B00000100240BC980008040000200C00002010
:1032C000014B1868704700BF0400002008B5FFF7E5
:1032D000F7FF044B5B68C3F30223034AD35CD84077
:1032E00008BD00BF00100240CC98000808B5FFF7E9
:1032F000E7FF044B5B68C3F3C223034AD35CD840A7
:1033000008BD00BF00100240CC98000810B504466C
:103310000268136923F44053C1680B431361836847
:103320000269134342691A430168CB6823F4B0531E
:1033300023F00C031343CB600268536923F44073FA
:1033400081690B4353610268134B9A4220D0FFF707
:10335000BDFF024602EB820202EB820263689B0021
:10336000B2FBF3F20D48A0FB02314909642303FBD1
:1033700011231B013233A0FB03235B0903F0F0028E
:1033800002EB011203F00F03216813448B6010BDA0
:10339000FFF7ACFF0246DDE7003801401F85EB5127
:1033A0002DE9F84305460F4616469946DDF820807C
:1033B0002C68246837EA04030CBF4FF0010C4FF06F
:1033C000000CB4451FD1B8F1FF3FF1D0B8F1000FA8
:1033D00005D0FEF77FFDA0EB09004045E8D92A683B
:1033E000D36823F4D073D3602A68536923F00103B0
:1033F0005361202385F83D3085F83E30002385F861
:103400003C30032000E00020BDE8F88358B310B53D
:10341000044690F83D300BB3242384F83D302268F5
:10342000D36823F40053D3602046FFF76FFF226870
:10343000136923F4904313612268536923F02A032C
:1034400053612268D36843F40053D36000202064A2
:10345000202384F83D3084F83E3010BD80F83C30A5
:10346000FEF7BAFCD8E7012070472DE9F04182B0A1
:103470001E4690F83D30DBB2202B54D104460D4659
:103480009046002953D0002A53D090F83C30012BAD
:1034900051D0012380F83C3000230364212380F8BD
:1034A0003D30FEF717FD0746A4F82480A4F82680D7
:1034B000A368B3F5805F05D04FF00008002384F8BF
:1034C0003C3012E0236913B14FF00008F6E7A8463C
:1034D0000025F3E738F8023B2268C3F30803536082
:1034E000E28C92B2013A92B2E284E38C9BB273B165
:1034F00000963B46002280212046FFF751FFE0B9AD
:10350000002DE7D015F8012B23685A60E8E70096F4
:103510003B46002240212046FFF742FF78B9202396
:1035200084F83D3000E0022002B0BDE8F0810120C7
:10353000FAE70120F8E70220F6E70320F4E703208A
:10354000F2E700000C480D490D4A002302E0D45870
:10355000C4500433C4188C42F9D30A4A0A4C0023DD
:1035600001E013600432A242FBD3FEF719FC00F025
:1035700015F8FDF7E1FF704700000020C0090020AA
:10358000FC9C0008C0090020C40A0020FEE70000DF
:10359000014B1868704700BF1000002070B50D4E39
:1035A0000D4D761BB61006D0002455F8043B0134AF
:1035B0009847A642F9D1094E094D06F065F8761BE9
:1035C000B61006D0002455F8043B01349847A642B3
:1035D000F9D170BDF09C0008F09C0008F89C000830
:1035E000F09C0008830730B548D0541E002A3FD015
:1035F0000346CAB201E0013C3AD303F8012B9D0710
:10360000F9D1032C2DD9CDB245EA05250F2C45EA79
:10361000054536D9A4F1100222F00F0C03F1200E5B
:10362000E6444FEA121C03F1100242E9045542E954
:10363000025510327245F8D10CF1010214F00C0F52
:1036400003EB021204F00F0C13D0ACF1040323F0CF
:1036500003030433134442F8045B9342FBD10CF0A0
:1036600003042CB1CAB21C4403F8012B9C42FBD1C9
:1036700030BD64461346002CF4D1F9E703461446E6
:10368000BFE71A46A446E0E70FB400B5074A83B087
:1036900004AB106853F8042B8168019300F08CF898
:1036A00003B05DF804EB04B0704700BF10000020C9
:1036B00030B5054689B008460C4600F04FF80121A8
:1036C0000223214A04940692AA6B04AC0590084494
:1036D00001940791AC680293039022B3636E13F0D8
:1036E000010FB4F90C309AB201D1980525D5910497
:1036F00006D4626E43F4005322F40052A381626642
:10370000284601AA214603F07BF9636E002814BF06
:103710004FF0FF350A25DA0702D4A3899B0506D5A9
:10372000284609B030BD284602F072FFD6E7A06DEA
:1037300003F00CFB284609B030BDA06D03F004FB7C
:10374000B4F90C309AB2D2E7B8980008024B01469F
:103750001868FFF7ADBF00BF1000002020F0030184
:1037600010F00300C0F1000051F8043B00F1040C1C
:103770004FEACC0C6FF000021CBF22FA0CF213438C
:103780004FF0010C4CEA0C2C4CEA0C4CA3EB0C0255
:1037900022EA030212EACC1204BF51F8043B0430BF
:1037A000F4D0C2F1000102EA0102B2FA82F2C2F1DF
:1037B0001F0200EBD20070472DE9F04FD5B01C4638
:1037C000914607910546099003F0B6FA02680E94F7
:1037D00010461792FFF7C2FF16901DB1AB6B002B7E
:1037E00000F01D82079A536EDD0740F12D81B2F97A
:1037F0000C2091B28F0409D4079B42F400529A81A5
:1038000091B21A465B6E23F4005353660E0740F1E3
:10381000C080079B1B69002B00F0BB8001F01A03DE
:103820000A2B00F0C48000242BAB224698464D465C
:10383000CDE929442893129400230024CDE91434BF
:103840002B78CDE91922CDE91B2218920B92002B7F
:1038500000F08F81AA4604E01AF8013F002B00F027
:10386000BB80252BF8D1BAEB050640F0B9809AF859
:103870000030002B00F07D8100234FF0FF324FF02D
:103880002B0920241F469AF8016008920AF1010AC8
:103890008DF883300A930AF1010AA6F120035A2B0E
:1038A00000F2E180DFE813F00503DF00DF00000332
:1038B000DF00DF00DF00DE02DF00DF006A006E02F3
:1038C000DF0055027802DF0073025B005B005B00E3
:1038D0005B005B005B005B005B005B00DF00DF0008
:1038E000DF00DF00DF00DF00DF006C01DF00EA0146
:1038F000C4016C016C016C01DF00DF00DF00DF0040
:10390000D002DF00DF002302DF00DF00DF00F8016C
:10391000DF009202DF00DF008707DF00DF00DF004B
:10392000DF00DF00DF00DF00DF006C01DF00EA0105
:10393000C6016C016C016C01B602C601BF01DF005B
:10394000C302DF005A022502A402BF01DF00F80112
:1039500072008407DF00DF006507DF0072000022CD
:10396000A6F130031AF8016B02EB820203EB42026C
:10397000A6F13003092BF5D90A928EE70E9B53F876
:10398000042B002A0A920E93C0F2E0819AF800609C
:1039900081E7079D0998294601F0FCFC002841F0C9
:1039A0004D83A98901F01A030A2B7FF43CAF079AD3
:1039B000B2F90E30002BFFF636AF536ED80702D4A3
:1039C000890541F1488123464A460799099855B02F
:1039D000BDE8F04F01F09CBCBAEB050600F0C980D1
:1039E0002A9BC8E9005633442A93299B0133072BAD
:1039F000299305DC08F108080B9B33440B9336E749
:103A00000799099828AA04F021FC80B90DF1AC08A7
:103A1000F2E70799099828AA04F018FC002800F09A
:103A200099800D9B1BB11946099802F0E9FE079A8F
:103A3000536ED90740F1E88093895B0601F10A8350
:103A40000B9855B0BDE8F08F079BB3F90C2090059B
:103A500091B23FF5CFAE1D46986D03F075F9B5F9FB
:103A60000C2091B2C6E6002E00F0838001230022D4
:103A70008DF8EC6006933BAD8DF883200C930D928E
:103A800008920F921392109217F0020302D0069937
:103A90000231069117F0840B07D10A990698A1EB21
:103AA0000009B9F1000F00F390832A9C82B1012232
:103AB000C8F80420299A013401320DF18301072A44
:103AC0002A942992C8F8001000F3D88308F1080856
:103AD0007BB10223C8F80430299B0234013321AAA8
:103AE000072B2A942993C8F8002000F3D58308F106
:103AF0000808BBF1800F00F08882089B0C9AA3EBAA
:103B0000020BBBF1000F00F3CB82FB0500F11F821B
:103B10000C9BC8F800501C44C8F80430299B2A9418
:103B20000133072B299300F3448308F10808780731
:103B300005D50A9B069A9D1A002D00F3B983DDE98D
:103B40000A2306998A42ACBF9B185B180B93002C82
:103B50007FF45FAF002329930D9B1BB10D9909984A
:103B600002F04EFE55460DF1AC082B78002B7FF489
:103B700071AE2A9B002B41F010820023299356E757
:103B80000E9B073323F00702F2E80234CDE9143428
:103B9000DDE9143424F00044994618460E9221467B
:103BA0004FF0FF32AB4BFDF76DFA002840F018855F
:103BB000484621464FF0FF32A64BFDF745FA002854
:103BC00040F00E85DDE9140100220023FDF732FAF2
:103BD000002840F065879DF88320002103209E4D3A
:103BE0009E4B27F080070D910690472EC8BF1D46BB
:103BF00008910C900F9113911091002A3FF444AF5B
:103C0000069B013306933FE7079B9B899A053FF587
:103C100014AF079CA06D03F099F8A3890DE70998EC
:103C200002F0F6FCDEE59AF8006047F0200732E685
:103C300047F01007BA060E9B40F16E84073323F05D
:103C400007031A465B6852F8084B99460E92002B00
:103C5000C0F26F84089B013300F0FB8254EA090331
:103C600027F0800B40F0F682089B002B40F0F78293
:103C70005F46002354AD08930C933DE101200022E0
:103C80000E9B069053F8041B3BAD8DF883208DF8F6
:103C9000EC100E930C90F2E64FF000090E9C089B7E
:103CA00054F8045B8DF88390002D00F0A1855A1C18
:103CB00000F0A5861A464946284603F065FB0D909C
:103CC000002801F050810D9B9DF883205B1B0C9315
:103CD00023EAE373CDF820900E940693CDF8349048
:103CE000CDF83C90CDF84C90CDF8409085E747F06A
:103CF000100717F0200900F0F2830E9B073323F022
:103D00000703D3F8049053F8084B0E93002327F4CD
:103D1000806B00228DF88320089A511C00F0D4801B
:103D200054EA09012BF0800740F0CD80002A40F0D2
:103D30000486002B9DD11BF001030C9300F030840E
:103D400030230DF24F158DF84F31D5E00A9B5B42C1
:103D50000A939AF8006047F004079CE5BD0600F15D
:103D6000FD84FC0600F1EE85780600F1B286B90507
:103D700040F1E8850E9B0B9953F8042B55461170C2
:103D80000E93F2E69AF800608DF8839083E59AF836
:103D9000006047F080077EE5524612F8016B2A2E3C
:103DA00001F08D82A6F13003092B924698BF0022C4
:103DB00001F2E5801AF8016B02EB820203EB42028A
:103DC000A6F13003092BF5D9089266E547F0100BF0
:103DD0001BF0200900F091830E9B073323F00703AB
:103DE0001A4652F8084BD3F804900E92012390E73C
:103DF000302278260E9B8DF8842053F8044B184A05
:103E00000E934FF00009022347F0020B8DF88560F6
:103E100018927EE79AF80060682E03BF9AF8016056
:103E200047F400770AF1010A47F0400733E59AF8B2
:103E300000606C2E03BF9AF8016047F020070AF17A
:103E4000010A47F0100726E59AF8006047F00807D6
:103E500021E500BFFFFFEF7FEC980008F098000815
:103E6000FC980008099E304602F066FF4368184639
:103E70001B93FFF773FC034630461C931E4602F06B
:103E80005BFF83681993002E3FF480AD199B002BD4
:103E90003FF47CAD199B1B78002B3FF477AD9AF86B
:103EA000006047F48067F6E49AF8006047F0010785
:103EB000F1E49DF88330002B7FF468AD9AF8006040
:103EC0008DF88340E7E4BB46012B00F0C381022B51
:103ED00054AD1FD1189A04F00F03D35C240944EAAF
:103EE00009744FEA191905F8013D54EA0903F2D1A2
:103EF0005F4654AB5B1B0C93089A0C9900238A42D3
:103F0000B8BF0A460D9306920F939DF88320139332
:103F1000109372E604F00703E40844EA49744FEA98
:103F2000D909303354EA09012A4605F8013DF1D197
:103F30001BF0010FDCD0302BDAD03023023A05F829
:103F4000013C54AB9B1A5F4615460C93D4E7652E93
:103F500040F3E980DDE9140100220023FDF760F859
:103F6000002800F0E1810123C8F80430299BC04AF1
:103F700001330134072B2A942993C8F8002000F359
:103F8000BF8408F10808229B129A934280F2DC82D7
:103F9000169B179A1C44C8E90023299B2A940133D5
:103FA000072B299300F3178408F10808129B5D1E64
:103FB000002D7FF7BCAD102D41F35D81DFF8B49289
:103FC000224649461026B946299B0F46DDF824B003
:103FD000079C05E008F10808103D102D40F39D8472
:103FE00001331032072BC8E90076CDE92932F1DD23
:103FF0002146584628AA04F029F900287FF411AD7B
:10400000DDE929320DF1AC08E6E70A9B069AA3EB3D
:10401000020BBBF1000F7FF770ADBBF1100F41F346
:104020005280DFF8509241462046A8464C46102365
:10403000299A079DDDF8249006E0ABF1100BBBF147
:10404000100F01F1080119DD01321030072AC1E912
:104050000043CDE92920F0DD2946484628AA04F08E
:10406000F5F800287FF4DDACDDE92920ABF1100B79
:10407000BBF1100F4FF010032BA9E5DC4546A1461C
:104080008846044601325C44072ACDE92924C8F851
:104090000090C8F804B000F3918308F108082CE5FB
:1040A000BBF1100F40F3E384DFF8C891414620468E
:1040B000A8464C461023299A079DDDF8249006E077
:1040C000ABF1100BBBF1100F01F1080119DD01324A
:1040D0001030072AC1E90043CDE92920F0DD294647
:1040E000484628AA04F0B2F800287FF49AACDDE92B
:1040F0002920ABF1100BBBF1100F4FF010032BA9CF
:10410000E5DC4546A1468846044601325C44072A60
:10411000CDE92924C8F80090C8F804B000F3D28192
:1041200008F10808F1E4129B012B40F3828101237E
:10413000299E01341E44072EC8F800502A94C8F85E
:104140000430299600F36C8308F10808169B0136A9
:10415000179A1C44072EC8E90023CDE9296400F30F
:104160006C8308F108080022DDE914010023FCF744
:1041700057FF002840F07A81129B0136013B013540
:104180001C44072EC8F800502996C8F804302A9419
:1041900000F35F8108F108081A9B01361C44C8F837
:1041A0000430072E24ABCDE92964C8F800307FF72E
:1041B000BCAC0799099828AA04F048F800287FF4B5
:1041C00030AC2A9C0DF1AC08B1E4B9F1100F40F30A
:1041D000C686DDE929214046CDE91D36B8461024C2
:1041E0004F46079EA946099D04E0103F102F00F19D
:1041F000080016DD0132204B1031072AC0E90034D7
:10420000CDE92921F1DD3146284628AA04F01EF81F
:1042100000287FF406ACDDE92921103F102F2BA8E0
:10422000E8DC4D46DDE91D36B9464746804609EBD8
:10423000010401321049072ACDE92924C8F8049065
:10424000C8F8001000F340839DF8832008F10808A7
:104250002CE4BB460A2C79F1000380F0FB82012399
:1042600030345F468DF84F410C930DF24F1543E605
:104270002C9900084099000830990008079909987E
:1042800028AA1D9303F0E2FF00287FF4CAAB2A9C02
:104290001D9B0DF1AC081BE40799099828AA03F0AF
:1042A000D5FF00287FF4BDAB2A9C0DF1AC0820E4BB
:1042B000102D40F3BE861026299B099FDDF81C9027
:1042C00004E0103D102D08F1080817DD0133BA4A4B
:1042D0001034072BC8E90026CDE92934F1DD494621
:1042E000384628AA03F0B2FF00287FF49AABDDE934
:1042F0002934103D102D0DF1AC08E7DC0133AE4A36
:104300002C44072BCDE92934C8F80450C8F8002004
:104310007FF715AC0799099828AA03F097FF0028A2
:104320007FF47FAB2A9C0AE42299002940F3108194
:10433000DDF84090129B9945A8BF9946B9F1000F4E
:104340000BDD299B4C440133072BC8E900592A9403
:10435000299300F3818508F10808109EB9F1000F38
:10436000A8BFA6EB0906002E00F3F582DDF840B0E9
:104370007905AB4400F1AC84229B129A934202DB94
:10438000FA0740F19283169A17991444C8E900126B
:10439000299A2A940132072A299200F3A88508F164
:1043A0000808129AAE18A6EB0B06D51AAE42A8BFA3
:1043B0002E46002E0DDD299B34440133072BC8F80F
:1043C00000B0C8F804602A94299300F3FC8508F132
:1043D0000808002EA8BFAD1B002D7FF7A8AB102D3D
:1043E00040F34987DFF8D491224649461026B94662
:1043F000299B0F46DDF824B0079C05E008F108086A
:10440000103D102D40F3898201331032072BC8E98B
:104410000076CDE92932F1DD2146584628AA03F07D
:1044200015FF00287FF4FDAADDE929320DF1AC0863
:10443000E6E7FE073FF57BAE0123299E01341E44CB
:10444000072EC8F800502A94C8F8043029967FF740
:10445000A1AE0799099828AA03F0F8FE00287FF476
:10446000E0AADDE929640DF1AC0895E6129B5D1E1A
:10447000002D7FF791AE102D40F319872246089743
:104480004FF0100BDFF83491099C079F05E008F10D
:104490000808103D102D40F3C78201361032072E58
:1044A000C8E9009BCDE92962F1DD3946204628AAFA
:1044B00003F0CCFE00287FF4B4AADDE929620DF1F7
:1044C000AC08E6E70799099828AA03F0BFFE002880
:1044D0007FF4A7AA2A9C0DF1AC08FFF716BB17F0D2
:1044E000100377D117F0400200F0AC820E9A994683
:1044F00052F8044B0E92A4B208E41BF010030E9A7B
:1045000054D11BF040014DD052F8044B99460E9205
:104510000123A4B2FFF7FDBB53F8044B0E93FB0637
:1045200053D47D064ED544F3C0394B4624B2FFF731
:104530008EBB2D2364428DF88330BB464FF00103C0
:1045400069EB4909FFF7E8BBF8077FF5F0AA1FE51B
:104550000123C8F80430299B194A01330134072B81
:104560002A942993C8F8002000F3688408F1080809
:10457000002940F02582129A07F0010313433FF40B
:10458000D6AA169B1799E218C8E90013299B2A920C
:104590000133072B299300F3508308F1080820E228
:1045A00054ADA9E41BF4007940F0A08252F8044B0A
:1045B00001230E92FFF7ADBB309900084099000827
:1045C0002C990008B80500F179824FEAE4794B464E
:1045D000FFF73DBB0E9B53F8044B0E93FFF796BBC2
:1045E000DDE9140102460B46FCF74CFD002840F0C3
:1045F000F785612E00F06C85412E00F07F82089BCC
:10460000013300F0948526F02003472B069300F039
:104610007B85DDE9141247F480730F931346002B5A
:10462000C0F2F4850C9300238B461D930D93069BDB
:10463000462B00F02B84452B00F0148508990C9B29
:1046400001910221009126A9049123A9039122A995
:104650005A460998029100F0AFFF069B0546472B8A
:1046600040F0448617F0010FB9460F9F40F0F784E1
:10467000269B5B1B1293069B472B00F0F182069B47
:10468000462B00F04284229B1093109B069A013B1C
:10469000412A229300F08A850021F2B2002B8DF886
:1046A0009020B6BF2D222B22109B8DF89120B8BFF1
:1046B000C3F10103092B40F381850DF19F0C624684
:1046C000BA4F1C46104687FB0312D917C1EBA20153
:1046D00001EB8102A3EB42023032632C00F8012C83
:1046E0000B4600F1FF32ECDC3033811EDBB28C452F
:1046F00002F8013C40F2FF850DF1920101E012F851
:10470000013B944501F8013BF9D10DF1A1030DF1F5
:1047100092021B1A134424AA9B1A1A93129B1A9AE8
:10472000012B1A440C9240F39E850C9B169A13445D
:104730000C9300230C9A29F4806722EAE27247F472
:1047400080770F930692139310931D9B002B40F0DC
:10475000B0829DF883200893FFF74FBA0E9B0B9809
:1047600053F8041BC2175546C1E900020E93FFF728
:10477000FCB98F4B189317F0200949D00E9B0733D3
:1047800023F00703D3F8049053F8084B0E93F8076F
:1047900009D554EA090306D030238DF8856047F027
:1047A00002078DF88430022327F4806BFFF7B1BA3B
:1047B000BB46FFF70DBB7F4B1893DCE707990998C1
:1047C00028AA03F043FD00287FF42BA92A9C0DF1B1
:1047D000AC08FFF792B90799099828AA03F036FDAB
:1047E00000287FF41EA92A9C0DF1AC08FFF7DEBB60
:1047F000062B294628BF06232A4608950D950693C1
:104800006D4D0E940C930F9113911091FFF7F5B924
:1048100017F0100369D00E9B53F8044B0E93B6E7C4
:104820000799099828AA03F011FD00287FF4F9A838
:10483000DDE929640DF1AC0888E40799099828AAF4
:1048400003F004FD00287FF4ECA8DDE929640DF1F4
:10485000AC0888E400230BF48062CDE90CA806962E
:1048600092461E46DDF8648054AF0CE000232046DB
:1048700049460A22FCF744FC0A2C79F100031BD3B9
:10488000044689462F4620460A2200234946FCF763
:1048900037FC30327D1E013607F8012CBAF1000FCB
:1048A000E4D098F800309E42E0D1FF2EDED00A2CF2
:1048B00079F1000380F0E080CDF864801296DDE9A4
:1048C0000CA8069EFFF714BB0799099828AA1D9308
:1048D00003F0BCFC00287FF4A4A89DF883202A9C48
:1048E0001D9B0DF1AC08FFF7E1B817F0400200F096
:1048F000B4800E9A994652F8044B0E92A4B246E741
:104900000799099828AA03F0A1FC00287FF489A838
:104910002A9C0DF1AC08FFF736BB14463A464F46C9
:10492000914601332C44072BC8F80090C8F8045076
:10493000CDE929347FF7F9A83BE4012BBB467FF48E
:10494000C6AA8CE40E9B0B9953F8042B55461160B4
:104950000E93FFF70AB9102E40F3AD84DFF85C9098
:10496000424648462146A846B9464FF0100B074636
:10497000299B099C079D04E00832103E102E40F34D
:10498000488201331031072BC2E9007BCDE9293180
:10499000F2DD2946204628AA03F058FC00287FF4BF
:1049A00040A8DDE929312BAAE7E700BF6766666604
:1049B000FC98000810990008249900084099000804
:1049C000169B1798E218C8E90003299B2A92013325
:1049D000072B299300F3318108F108080029C0F260
:1049E0000283129901338C18072BCDE92934C8F8BA
:1049F0000050C8F804107FF798A8FFF7DABB2846E4
:104A0000CDF820900E94FEF7A9FE20EAE073CDE9E0
:104A10000C099DF88320CDF83C90CDF84C90CDF852
:104A200040900693FFF7E9B81446089F01362C44DE
:104A3000072ECDE92964C8F80090C8F804507FF724
:104A4000A9AB06E517F400790E9B3DD053F8044B53
:104A500091460E93E4B2FFF759B917F400790E9B13
:104A600040D053F8044B91460E93E4B28FE6299A56
:104A7000DFF84C92FFF749BB1C9B1B99ED1A1A46B5
:104A8000284603F073FB98F801300BB108F10108D8
:104A9000204649460A2200230026FCF731FBEFE6B8
:104AA0002D228DF88320FFF798B8129AAE18A6EB46
:104AB0000B06D51AAE42A8BF2E468AE444F3C019AD
:104AC0004B4664B2FFF7C3B853F8044B0E93FFF79D
:104AD0001DB90E9B0B9953F8042B554611800E936C
:104AE000FFF743B853F8044B0E9350E652F8044BCB
:104AF000894601230E92E4B2FFF70BB930238DF8FB
:104B0000843058238DF88530089B47F00204632BCE
:104B100000F3E38200233BAD0D9347F481730F93C1
:104B2000DDE914121346002B2746C0F240820C9395
:104B300000238B461D9326F020030693612E00F080
:104B40001783412E7FF473AD22AA58460C9903F0C7
:104B50007DFA00224FF07F53FBF7FAFF02460B4627
:104B6000CDE9102300220023FCF75AFA08B10123F3
:104B70002293544B0C93089BCDE912A6CDE91E78E5
:104B8000DDE91067AB46DDF830A003F1FF39109581
:104B900006E00022002309F1FF39FCF741FAE8B9E9
:104BA0000022494B30463946FBF7D2FF0F460646F6
:104BB000FCF77EFA0446FBF71DFC0B46024639461D
:104BC0003046FBF7C9FA1AF80430B9F1FF3FD8466E
:104BD0004D4606460F460BF8013BDAD130463946C2
:104BE00000223A4BA946DDF848A0109DCDF8488038
:104BF000CDE91001DDF87C80139E1E9FFCF738FA8A
:104C0000002840F04482DDE9100100222F4BFCF720
:104C100007FA10B1E10700F13A824B46002B06DBA0
:104C2000302201335B440BF8012B5B45FBD1ABEB2E
:104C30000503B94612930F9F1DE50799099828AA05
:104C400003F004FB00287EF4ECAEDDE92932229962
:104C50000DF1AC08C2E6906D02F078F8FEF7B3BE35
:104C6000229BDA1C109302DB089A934204DD023E79
:104C700026F02003069308E5109B129A9342C0F297
:104C8000828119F0010F00F0A882169A13440C9348
:104C900019F4806F00F09082109B6726002B00F3C0
:104CA00046810C9B23EAE373069300230F9313932F
:104CB0004BE52D2200238DF883200893FEF7A0BF3B
:104CC0004099000810990008000030400000E03FC3
:104CD000129B4246DDF84C80EB185E460893CDF8F7
:104CE00030A010972146199FDDF87090DDF824A0C0
:104CF000DDF81CB00F9B1395B8F1000F2ED0002BE0
:104D00006CD1013F08F1FF381B9B4944C2E90039CF
:104D1000299B2A910133072B299363DC0832089BD6
:104D200038789B1B8342A8BF0346002B1C460ADD34
:104D30002998194401300728C2E900632A91299073
:104D40005BDC38780832002CB4BF0546051B002D0B
:104D500015DC06440F9BB8F1000FD0D1002B3DD1DC
:104D6000DDE91235EB189E42B346199790460C4682
:104D700028BF9B46DDF830A0109FFFF7FDBA102D2D
:104D800040F36F821024299804E0103D102D02F1A9
:104D9000080216DD0130A84B10310728C2E90034A3
:104DA000CDE92901F1DD5946504628AA03F04EFA13
:104DB00000287EF436AEDDE92901103D102D2BAA26
:104DC000E8DC01309C4B29440728CDE929015560D6
:104DD00013604EDC387808320644BBE70F9B013B7A
:104DE0000F9391E75946504628AA03F02FFA00285E
:104DF0007EF417AE2A992BAA91E75946504628AA65
:104E000003F024FA00287EF40CAE38782A992BAAF5
:104E100099E7454690463A460C464F46914601333F
:104E20003444072BCDE92934C8F80090C8F8046051
:104E300000F35D8108F10808FFF798BA079909980F
:104E400028AA03F003FA00287EF4EBAD22992A9CED
:104E50000DF1AC08FFF78CBB0799099828AA03F05D
:104E6000F5F900287EF4DDAD2A9C0DF1AC08FFF7C2
:104E700074BA5946504628AA03F0E8F900287EF48F
:104E8000D0AD38782A992BAA064463E708990C9B81
:104E900001910321009126A9049123A9039122A93C
:104EA0005A460998029100F087FB03780546302B9B
:104EB00000F0C081229B089AB94613440F9FEC185A
:104EC0005846002200230C99FCF7AAF810B123469B
:104ED000FFF7CFBB269BA342BFF4CBAB30215A1CBC
:104EE00026921970269B9C42F9D8FFF7C2BB0799FE
:104EF000099828AA03F0AAF900287EF492AD229B13
:104F00002A9C0DF1AC08FFF74CBA229A002A1092A5
:104F100040F3B981089909F001030B4340F0408147
:104F20006626109B0C9319F4806F3FF4BAAE199962
:104F30000B78FF2B00F0D6810024109A204604E065
:104F400001300131FF2B00F06481934280F26181D6
:104F5000D21A4B78002BF3D10B780134F2E7DDE95C
:104F60002921FFF764B9089B9DF883200E940693CE
:104F70000C9308900F9013901090FEF73EBE002304
:104F80000893FEF78ABC129B169A9A18109B0C92F3
:104F9000002B40F35D816726C5E70799099828AA89
:104FA00003F054F900283EF4E8ADFEF740BD26F0CA
:104FB000200306932D22DDE914349B4604F10043BF
:104FC0001D920C93BAE50799099828AA03F03EF9B7
:104FD00000287EF426AD229D129B2A9C0DF1AC0880
:104FE0005D1BFFF7F6B94E42103180F281814146D8
:104FF0001024A846DFF84090DDF824B0079D04E0B7
:105000000831103E102E40F3998001331032072BE7
:10501000C1E90094CDE92932F2DD2946584628AA93
:1050200003F014F900287EF4FCACDDE929322BA949
:10503000E7E7299BFFF762B940990008079B5B6E81
:10504000DD0707D4079B9B899C0503D4079B986DBC
:1050500001F07CFE4FF0FF330B93FEF7F1BC089B91
:10506000EC182DE70221009108995A464C1C26A9FC
:10507000049123A9039122A90C9B09980194029100
:1050800000F09AFA0546B9462C440F9F18E7129B88
:1050900026930C9B1BF8012CD97B5B468A4209D1D5
:1050A000302003F8010C269B5A1E269213F8012C7F
:1050B0009142F6D0392A0BBF0C9A0132927AD2B2C1
:1050C00003F8012CB3E5299ADFF83492FEF7DABF32
:1050D00030238DF88430782314E50998591C01F0A9
:1050E000A7FE0546002800F0F6800D9015E507990B
:1050F000099828AA03F0AAF800287EF492AC2A9C0A
:105100000DF1AC08FFF732B9089B002B08BF012353
:10511000089347F480730F93159B002BC0F2A9806E
:10512000DDF850B01D900C930D90FFF787BA062361
:10513000089326F020030693FFF76BBA454688468E
:1051400001333244072BCDE92932C8F80090C8F862
:1051500004607FF722AA0799099828AA03F076F835
:1051600000287EF45EACDDE929320DF1AC0838E4AC
:1051700022AA58460C9902F069FF00224FF07F5393
:10518000FBF7E6FC02460B46CDE910230022002384
:10519000FBF746FF08B1012322935A4B0C93EAE434
:1051A000169B6626D31819440C91BCE606F10F0233
:1051B0000121D2B2FFF772BA672672E500295FD1EA
:1051C00030228DF892200DF19302303302F8013B2A
:1051D00024ABD31A1A93FFF7A1BA109B0C9357E58F
:1051E000159B0320002BB8BF2D224FF00003A8BF52
:1051F0009DF8832019460D93434D444BB8BF8DF85D
:10520000832027F080070690FEF7EFBC00230D9364
:10521000D0E61991109213900F940F9A139B1C993A
:1052200013440C9A01FB03230C9323EAE3730693C4
:10523000FFF78BBA5846002200230C99FBF7F0FECB
:1052400000287FF437AE089BC3F10103229332E6B6
:10525000C3F101031A4422EAE27367260C92069313
:1052600023E52998ADE519F0010F3FF462AAFFF795
:105270005CBA0D909EE6299BDFF88490FFF751BB46
:105280000DF19202A1E7089A09F0010959EA020317
:1052900004D10123662606930C9306E5169B662629
:1052A00001331A4422EAE2730C920693FDE4DFF81C
:1052B0005090FFF7BBBB299BDFF84490AFE50E9BF6
:1052C0009AF80160924653F8042B0E9342EAE27377
:1052D0000893FEF7E0BA079A938943F0400393815D
:1052E000FEF7A5BB00230F93139396E7089CCAE62D
:1052F000DFF80C9024E702231A93FFF70FBA00BFE0
:1053000040990008FC980008F4980008F8980008F4
:10531000F0B54FF4806C1546002406461F46ADF2EA
:105320006C4D1AAB009304938B8916A823F00203EB
:10533000ADF80C304B6E06941993CB890C46ADF842
:105340000E30CB69CDF808C007934B6ACDF814C076
:10535000099301F0F5FC2A463B4669463046FEF7C4
:105360002BFA051E07DB6946304601F01DF90028BF
:1053700018BF4FF0FF35BDF80C305B0603D5A3898D
:1053800043F04003A381169801F0DCFC28460DF29F
:105390006C4DF0BD38B5334B05461B680C460BB160
:1053A0009A6B12B3B4F90C3018079AB225D521695B
:1053B00000292DD012F0010007D000256069A560FA
:1053C0004042A06139B1002038BD950758BF6069DF
:1053D000A0600029F7D1120658BF0846F4D543F063
:1053E00040034FF0FF30A38138BD184601F010F99B
:1053F000B4F90C3018079AB2D9D4D1062AD552077D
:1054000014D4216943F00803A3819AB20029D1D1B1
:1054100002F42070B0F5007FCCD02146284601F080
:1054200097FCB4F90C3021699AB2C3E7216B51B1F2
:1054300004F14002914204D0284601F0E1F9B4F9A8
:105440000C30002222630022216923F02403C4E9E6
:105450000012D7E7092243F040032A604FF0FF30E3
:10546000A38138BD10000020024B13B1024800F0A8
:1054700005B87047000000003567000800230146AA
:105480001A46184603F010BE2DE9F04F03690C6967
:1054900085B0A342C0F28980013C01F11405A3004C
:1054A00000F11408019355F8243058F824200133F2
:1054B0008A469A4208EB84018146B2FBF3F605EB7B
:1054C000840702913AD30021AE4640460A46A346DD
:1054D00003955EF8045B0468ABB206FB03132D0C66
:1054E000190C06FB05119BB2D21A1FFA84FC9444D6
:1054F0008AB2C2EB144202EB2C421FFA8CFC4CEA3B
:105500000243774540F8043B4FEA11414FEA2242FB
:10551000DFD2019B5C4658F80330039D73B9029BB0
:10552000043B984504D307E0984504F1FF3403D2C7
:1055300053F80429002AF7D0C9F8104051464846CC
:1055400002F06EFA00282CDB40460023013655F8A5
:10555000041BD0F800C08AB29A1A1FFA8CFE0B0CFA
:105560007244C3EB1C4303EB224392B242EA034270
:10557000AF4240F8042B4FEA2343E8D258F82420E6
:1055800008EB84036AB9043B984504D307E09845C7
:1055900004F1FF3403D253F80429002AF7D0C9F8E4
:1055A0001040304605B0BDE8F08F002005B0BDE8E2
:1055B000F08F00BF000000002DE9F04F90469946A3
:1055C000016C99B00446CDE90489259D41B10123C0
:1055D000426C93408B604A6001F0CCFF002323644F
:1055E000B9F1000AB4BF012300232B60764BBCBF86
:1055F0002AF0004ACDF814A033EA0A0300F0AA808A
:10560000DDE904231046194600220023CDE90A01F2
:10561000FBF706FD074670B10123249A1360269B11
:10562000002B00F0E68269481860431E039303983C
:1056300019B0BDE8F08F16AB019317AB009320466D
:10564000DDE90A2302F0B2FA5FEA1A56054640F095
:105650009780DDE916763E4406F23240202840F37A
:10566000B783C0F140000AFA00FA06F2124028FAA5
:1056700000F04AEA0000FAF7ADFE0123013E0F9365
:10568000A1F1F8710022524BFAF766FD48A3D3E965
:105690000023FBF75DFA48A3D3E90023FAF75EFD88
:1056A000804630468946FAF7A5FE45A3D3E9002394
:1056B000FBF74EFA02460B4640464946FAF74EFDC6
:1056C00080468946FBF7F4FC0022834600234046CF
:1056D0004946FBF7AFFC002840F07E82BBF1160F75
:1056E00000F26D82DDE90A013A4B03EBCB03D3E90B
:1056F0000023FBF79FFC002872D00023BE1B0E93F3
:10570000731E0BF1FF3B069300F1608200230993A7
:10571000BBF1000F6BDA099BCDF81CB0A3EB0B03B8
:105720000993CBF100030D93229B4FF0000B092B43
:1057300066D8052B40F34A830026043B2293229B24
:10574000023B032B00F26C86DFE813F061045E0479
:105750005504380442F20F73249ACAF3130A1360F3
:105760005AEA08031AD1269B002B00F068861A4BD0
:1057700003930833269A0398136019B0BDE8F08F9D
:10578000DDE90A12C2F31303084643F07F510F9775
:10579000A6F2FF36169F41F4401173E7269B002BBB
:1057A00040F0EF830D4B039341E700BFAFF3008060
:1057B00061436F63A787D23FB3C8608B288AC63F17
:1057C000FB799F501344D33F0000F07F2D990008D0
:1057D0000000F83FA09A000854990008509900086A
:1057E000BE1B731E069300F18A840E900990069BDF
:1057F0005B44CDE9063B00230D93229B092B98D9EE
:10580000002322934FF0FF330126089300230C96C8
:1058100023930021089B61641293204601F084FECB
:105820000390002800F00486039B2364089B0E2B42
:1058300000F21481002E00F011810799002940F335
:105840006084AF4B01F00F0203EBC2030A46D3E9B9
:1058500000674FEA2118D10540F11784DDE90A01FC
:10586000A84B4FF0030AD3E90823FBF79BFACDE9D5
:10587000100108F00F08B8F1000F13D0DFF8849280
:1058800018F0010F09D0D9E9002330463946FBF75B
:105890005FF906460F460AF1010A5FEA680809F156
:1058A0000809EDD1DDE9100132463B46FBF77AFAF3
:1058B000804689460E9B43B1002240464946924BA2
:1058C000FBF7B8FB002840F035855046FAF792FD0B
:1058D00042464B46FBF73CF98C4B0022FAF73EFC64
:1058E000A1F15073CDE910011193089B002B00F03A
:1058F0009780079B1493089B13930C9B002B00F03D
:10590000A984139A7E4B002003EBC20353E90223C0
:105910007F49FBF747FADDE91023FAF71DFCCDE9D3
:10592000100149464046FBF7C3FB0746FAF762FD04
:1059300002460B4640464946FAF70EFCDDE91023C5
:10594000039E303706F8017B80468946FBF772FBE1
:10595000002840F02E85CDF854B00027DDE910ABCB
:105960001095139D13942AE00137AF4280F22E85E3
:10597000504659460022674BFBF7EAF80022654B78
:1059800082468B4640464946FBF7E2F88946804608
:10599000FBF78EFB0446FAF72DFD02460B46404608
:1059A0004946FAF7D9FB303452465B4606F8014BBC
:1059B00080468946FBF73EFB002840F0F8844246CB
:1059C0004B4600205049FAF7C7FB52465B46FBF7AF
:1059D00031FB0028C8D0DDE91343109D039A0793DB
:1059E00002E0964200F0CD84B24616F8013D392B14
:1059F000F7D00133DBB23370079B01330793C8E163
:105A00005046FAF7F7FC42464B46FBF7A1F83F4BEE
:105A10000022FAF7A3FBA1F15073CDE91001119315
:105A20004046494600223C4BFAF796FBDDE91089D7
:105A30004B46424606460F46FBF71AFB81460028B6
:105A400040F0AF84DDE91001024601F10043304629
:105A50003946FBF7EFFA002840F04883179B002BEC
:105A6000C0F28C80079A0E2A00F38880244B03EB47
:105A7000C203D3E900AB239B002B1BDA089B002B4E
:105A800018DC40F031830022234B50465946FBF787
:105A90005FF802460B46DDE90A01FBF7D5FADDF8AF
:105AA00020904E46002800F0CA82239BDDF80C802F
:105AB000DF43CCE25246DDE90A785B463846414690
:105AC000FBF770F9FBF7F4FA81460990FAF792FCBC
:105AD00052465B46FBF73CF8039E0B4602464146A6
